:020000040800F2
:10000000B09100209D0100084D3500083915000809
:10001000A52D0008510C00088B55000800000000B9
:10002000000000000000000000000000AD4B0008D0
:10003000F90E000800000000C93500089D4C0008BA
:10004000B7010008B7010008B7010008B7010008B0
:10005000B7010008B7010008B7010008B7010008A0
:10006000B7010008B7010008B7010008B701000890
:10007000B7010008B7010008B7010008B701000880
:10008000B7010008B7010008B7010008B701000870
:10009000B7010008B7010008B7010008B701000860
:1000A000B7010008B7010008B7010008B701000850
:1000B000F54D0008494E0008B7010008B7010008D7
:1000C000B7010008B7010008B7010008B701000830
:1000D000B7010008B7010008B7010008B701000820
:1000E000B7010008B7010008B7010008B701000810
:1000F000B7010008B7010008B7010008B701000800
:10010000B7010008B7010008B7010008B7010008EF
:10011000B7010008E9500008B7010008B70100085E
:10012000B7010008B7010008B7010008B7010008CF
:10013000B7010008B7010008B7010008B7010008BF
:10014000B7010008B7010008B7010008B7010008AF
:10015000B7010008B7010008B7010008B70100089F
:10016000B7010008B7010008B7010008B70100088F
:10017000B7010008B7010008B7010008B70100087F
:10018000B7010008B7010008DFF80CD000F004FB4D
:1001900000480047A5630008B0910020064880474A
:1001A00006480047FEE7FEE7FEE7FEE7FEE7FEE75C
:1001B000FEE7FEE7FEE7FEE78D4D00088901000837
:1001C00010B5431A934209D28318881803E010F837
:1001D000011D03F8011D521EF9D210BD40EA0103B2
:1001E0009B0703D009E008C9121F08C0042AFAD2ED
:1001F00003E011F8013B00F8013B521EF9D210BD9B
:10020000D2B201E000F8012B491EFBD27047002258
:10021000F6E710B513460A4604461946FFF7F0FF05
:10022000204610BD421E12F8013F002BFBD111F8F1
:10023000013B02F8013B002BF9D1704710B50022B9
:1002400000E0521C835C8C5CA34201D1002BF8D1EE
:10025000D8B2E1B2401A10BD2DE9FE4F804681EAC6
:100260000300C00F0C46009021F0004123F0004530
:10027000B8EB0200A94105D24046214690461C46F3
:100280000B46024623F00040104347D0270DC7F32A
:100290000A00C3F30A510290401A019040286BDA19
:1002A000C3F3130040F4801B0098924620B1002352
:1002B000D2EB030A63EB0B0B01985946C0F14002E5
:1002C000504600F03CF906460D4650465946019A04
:1002D00000F054F910EB08006141002487EA115244
:1002E00084EAE7731A4340D0009A62B3019A012A64
:1002F0004FEA075215DC001B61EB02014FF0004290
:1003000002EA0752CDE90042001C41F58011324655
:100310002B4600F054F903B0BDE8F08F404621466B
:10032000F9E7001B61EB0201001C41F58013001886
:100330005B412018A2F5001747EB030140EAD57096
:10034000B6196D4111E06D084FEA360645EAC075F1
:100350004FEA0752001B61EB0201001C41F58011BE
:1003600049084FEA30000019514132462B4603B08C
:10037000BDE8F04F00F014B90098012240000023BE
:10038000D0EB020263EBE073009821464FEAE07481
:10039000B8EB000061EB0401E9E783F000435BE7A1
:1003A00081F0004158E72DE9FE4F81EA030404F093
:1003B000004421F0004100944FF0000B23F0004373
:1003C00050EA01045ED052EA03045BD0C3F30A543E
:1003D000C1F30A552C44A4F2F3340194A0FB025457
:1003E000C1F3130141F48011C3F3130343F48013E9
:1003F00001FB024400FB034E840A970A44EA81543D
:1004000047EA8357A4FB076802958D0A05FB078519
:100410004FEA932C04FB0C542705029D4FEA065823
:1004200047EA1637B5EB08056EEB070C870E920E00
:1004300047EA811742EA8312A7FB0201B6EB0B01E0
:1004400064EB00042B0D43EA0C335E1844EB1C50A4
:10045000DA465146E7FB0201C5F313044FEA0B33BA
:1004600043EA14534FEA0432019C43EA0603A4F121
:100470000C040294009CCDE900B400F0A0F803B095
:10048000BDE8F08F00200146F9E700F0004230F0AF
:1004900000400AD0C10D01F56071C0F3160042EAB8
:1004A0000151C208400711437047002001467047C0
:1004B00030B50B46014600202022012409E021FA34
:1004C00002F59D4205D303FA02F5491B04FA02F531
:1004D0002844151EA2F10102F1DC30BD2DE9F05FC8
:1004E0000546002092469B468846064681464024A3
:1004F0001BE0284641464746224600F02FF8534667
:100500005A46C01A914110D311461846224600F0AF
:1005100016F82D1A67EB01084F46224601200021EC
:1005200000F00DF817EB00094E41201EA4F1010464
:10053000DFDC484631462A464346BDE8F09F202A84
:1005400004DB203A00FA02F1002070479140C2F12A
:10055000200320FA03F3194390407047202A04DB5C
:10056000203A21FA02F00021704721FA02F3D0402C
:10057000C2F120029140084319467047202A06DB49
:10058000CB17203A41FA02F043EAE07306E041FA61
:1005900002F3D040C2F1200291400843194670474F
:1005A00010B5141E73F1000408DA401C41F100017B
:1005B00092185B411A4301D120F0010010BD2DE9D2
:1005C000F04D92469B4611B1B1FA81F202E0B0FAC9
:1005D00080F220329046FFF7B2FF04460F4640EA11
:1005E0000A0041EA0B0153465A46084313D011460C
:1005F00053EA010019D0C8F140025046FFF7AEFFA0
:1006000005460E46504659464246FFF798FF0843B6
:1006100005D0012004E020463946BDE8F08D0020D9
:10062000054346EAE0762C4337430A986305E40A1B
:10063000A0EB08000022FD0A44EA47540A3002D524
:1006400000200146E9E7010510196941DDE9084587
:1006500000196941BDE8F04DA2E72DE9F04D81EAAE
:10066000030404F0004B21F0004514464FF0000A4B
:1006700023F0004150EA050220D054EA01021DD0C7
:10068000C5F30A570246C5F31303C1F31300C1F3C0
:100690000A5640F4801543F48013A7EB0608101B9C
:1006A000D64608F2FD3873EB050002D308F10108C5
:1006B00001E092185B41B8F1000F03DA0020014617
:1006C000BDE8F08D00204FF48011064684460EE010
:1006D000171B73EB050705D3121B63EB05030643DA
:1006E0004CEA010C49084FEA300092185B4150EA8D
:1006F0000107EDD152EA030012D082EA040083EA36
:100700000501084305D0101BAB4106D2012200238E
:1007100006E000224FF0004302E06FF001025310A8
:100720001AEB06004CEB085110EB0A0041EB0B01F1
:10073000BDE8F04DFFF734BFC1F30A52C1F3130116
:1007400040F2FF3341F480119A4202DA0020014660
:10075000704740F233439A42A2F2334202DC5242E3
:10076000FFF7FCBEFFF7EBBE30B5041E71F10004CD
:1007700004DB4FF00044404264EB0101141E73F1AE
:10078000000405DB1C464FF00043524263EB0403B8
:10079000994208BF904230BD064C074D06E0E06824
:1007A00040F0010394E8070098471034AC42F6D3B8
:1007B000FFF7EEFCE4810008048200081CB501216B
:1007C000084602F003FF4020009001208DF804004D
:1007D00002208DF8050001208DF806008DF8070035
:1007E0006946094800F0A9FB0820009069460648C0
:1007F00000F0A3FB4021044800F08DFC08210248D2
:1008000000F089FC1CBD00000000024070B50546E8
:10081000002400F0D9F9002618E040211C4800F01F
:1008200009FC022005F09CFD4021194800F073FCF2
:100830006006040E0821164800F0EAFB08B1601CAF
:10084000C4B2012005F08CFD701CC6B2082EE4DB9A
:1008500040210F4800F0EEFB00F0C6F925B1082159
:100860000B4800F0E7FB03E00821094800F053FCC7
:10087000022005F075FD4021054800F04CFC0220E7
:1008800005F06EFD4021024800F0D4FB204670BD0B
:100890000000024070B5044600F0A6F9402114485B
:1008A00000F0C8FB002520E004F0800020B1082102
:1008B0000F4800F030FC03E008210D4800F0BAFBBF
:1008C0006006040E022005F04BFD4021084800F0B0
:1008D00022FC022005F044FD4021054800F0AAFB5F
:1008E000022005F03DFD681CC5B2082DDCDB70BDA3
:1008F0000000024010B500F077F908210A4800F026
:100900000AFC4021084800F006FC042005F028FD00
:100910000821054800F08EFB042005F021FD402150
:10092000014800F087FB10BD0000024010B500F048
:100930005BF940210C4800F07DFB08210A4800F0DB
:1009400079FB042005F00CFD4021074800F0E3FB93
:10095000042005F005FD0821034800F0DCFB04201D
:1009600005F0FEFC10BD00000000024010B50024A0
:1009700000F02AF90821114800F0CDFB012005F014
:10098000EFFC40210D4800F0C6FB012005F0E8FC1B
:1009900007E0601CC4B2FA2C03DDFFF7C7FF01209B
:1009A00010BD0821054800F033FB0028F1D140219B
:1009B000024800F03FFB0020F2E700000000024088
:1009C00008B5FFF7FBFE322005F0BCFC69460020AD
:1009D00000F0D6F838B128484068401C26494860E5
:1009E0006FF0010008BD9DF80000E52802D06FF00F
:1009F0000200F7E700212D2000F00CF910B16FF094
:100A00000100EFE7052005F09DFC0B21312000F0EF
:100A100001F910B16FF00100E4E70A212C2000F089
:100A2000F9F810B16FF00100DCE700212E2000F092
:100A3000F1F810B16FF00100D4E700211E2000F0A2
:100A4000E9F800211F2000F0E5F80021202000F047
:100A5000E1F808212D2000F0DDF810B16FF0010061
:100A6000C0E70A2005F06EFC012003490870002051
:100A7000486000BFB6E700008C7F0020FEB504464A
:100A80000D4616466A4601A902A800F045F848B985
:100A9000BDF908002080BDF904002880BDF90000E0
:100AA000308003E00020208028803080FEBD2DE9CA
:100AB000F04107460D461646FFF71CFFA620FFF73C
:100AC000E9FEFFF753FF28B1FFF730FF6FF0010099
:100AD000BDE8F0813846FFF7DDFEFFF747FFFFF77F
:100AE00009FFA720FFF7D6FEFFF740FF00240DE027
:100AF000701EA04204D10020FFF788FE285503E0B5
:100B00000120FFF783FE2855601CC4B2B442EFDB1E
:100B1000FFF70CFF0020DBE77CB504460D461646C8
:100B20001648007810B94FF0FF307CBD06226946A8
:100B30003220FFF7BCFF38B110484068401C0F4915
:100B400048606FF00100F0E79DF800009DF801108B
:100B500040EA012000B220809DF802009DF80310B9
:100B600040EA012000B228809DF804009DF805109D
:100B700040EA012000B230800020D6E78C7F0020C0
:100B800070B505460C46FFF7B5FEA620FFF782FEBE
:100B9000FFF7ECFE20B1FFF7C9FE6FF0010070BD5A
:100BA0002846FFF777FEFFF7E1FEFFF7A3FEA72039
:100BB000FFF770FEFFF7DAFE0020FFF727FE207038
:100BC000FFF7B4FE0020EAE71CB5082000900020E3
:100BD0008DF8040001208DF807006946014800F0F7
:100BE000ACF91CBD000002401CB50820009001209B
:100BF0008DF8040002208DF8050001208DF8060014
:100C00008DF807006946024800F097F91CBD000006
:100C10000000024070B505460C46FFF76BFEA620AB
:100C2000FFF738FEFFF7A2FE20B1FFF77FFE6FF05F
:100C3000010070BD2846FFF72DFEFFF797FE204606
:100C4000FFF728FEFFF792FEFFF770FE0020F0E7A7
:100C500000BFFEE710B5022005F082FB10BD0000CA
:100C600010B500200F4908600F48006820F0404090
:100C70000D4908600846006840F080400860FFF7B2
:100C8000E9FF00200949C1F8BC02FFF7E3FF01209A
:100C900004490860FFF7DEFF00200449C1F8A802FC
:100CA00010BD0000A8824042000402400080404283
:100CB0001CB50D48006840F002000B490860012097
:100CC000032100230246CDE900108102074800F00D
:100CD000B3F90120032100230246CDE90010C1032E
:100CE000024800F0A9F91CBD30380240000402405F
:100CF00010B500200F4908600F48006820F0404000
:100D00000D4908600846006840F080400860FFF721
:100D1000A1FF01200949C1F8BC02FFF79BFF012098
:100D200004490860FFF796FF00200449C1F8A802B3
:100D300010BD0000A88240420004024000804042F2
:100D400070B5054600241548006820F0404013495E
:100D500008600846006808601E2005F001FB0026B8
:100D600012E000200E490860FFF774FF01200D49D2
:100D7000C1F8A8026006040E09486C38006808B182
:100D8000601CC4B2701CC6B2082EEADB15B9FFF7AE
:100D9000AFFF01E0FFF764FF204670BD0004024092
:100DA000A88240420080404270B504461348006863
:100DB00020F04040114908600846006840F080403B
:100DC000086000200E490860FFF744FF002512E08C
:100DD000E0090B49143108606006040E012009493E
:100DE000C1F8A802FFF736FF002005490860FFF7A9
:100DF00031FF681CC5B2082DEADB70BD000402405B
:100E0000A88240420080404210B50F48006820F0A0
:100E100040400D4908600846006840F08040086086
:100E200001200A4908600A49C1F8A8021E2005F0FD
:100E300097FA002005490860FFF70CFF00200449DD
:100E4000C1F8A80210BD000000040240BC8240426C
:100E50000080404210B50E48006820F040400C4928
:100E600008600846006840F0804008600120094999
:100E700008601E2005F074FA00200749C1F8BC0282
:100E8000FFF7E8FE012003491431086010BD00009F
:100E900000040240A88240420080404210B5002475
:100EA0001248006820F04040104908600846006879
:100EB000086001200E4908600E49C1F8A802FFF73A
:100EC000C9FE09E0601CC4B2FA2C03DDFFF7C2FFC3
:100ED000012010BDFFF7BEFE0548803800680028DD
:100EE000F0D103491439086000BFF2E70004024062
:100EF000BC82404200804042704730B5CC1000F1C7
:100F0000200353F824304C07E50E0F24AC40A343D4
:100F1000CD1000F1200444F82530CC1000F120035E
:100F200053F824304C07E40E02FA04F42343CD10A6
:100F300000F1200444F8253030BDF0B50A46002108
:100F40000023002400BF3DE0012505FA01F31568E8
:100F500005EA03049C4234D105684F000326BE40D5
:100F6000B543056015794E00B54006683543056008
:100F70001579012D02D01579022D16D185684F0003
:100F80000326BE40B543856055794E00B54086685E
:100F900035438560456801268E40B5434560456808
:100FA00096798E40B6B235434560C5684F0003263A
:100FB000BE40B543C560D5794E00B540C6683543DF
:100FC000C560491C1029BFD3F0BDF0B50023002433
:100FD0004D07ED0E02FA05F3CE1000F1200555F88D
:100FE00026504E07F70E0F26BE40B543CF1000F136
:100FF000200646F82750CE1000F1200555F826505F
:1010000045EA0304CE1000F1200545F82640F0BD66
:101010000246002013690B400BB1012000E00020C4
:1010200070470246002053690B400BB1012000E0DD
:1010300000207047418370472DE9F0470C46DDE9F9
:101040000867002100258C4600BF60E04FF00108D2
:1010500008FA01F504EA050CAC4557D1D0F8008038
:101060004FEA410A4FF0030909FA0AF928EA090888
:10107000C0F80080D0F800804FEA410902FA09F96F
:1010800048EA0908C0F80080012A01D0022A27D1C5
:10109000D0F808804FEA410A4FF0030909FA0AF92B
:1010A00028EA0908C0F80880D0F808804FEA41090A
:1010B00006FA09F948EA0908C0F80880D0F804904F
:1010C0004FF0010808FA01F829EA0809C0F804906D
:1010D000D0F8048003FA01F948EA0908C0F804804E
:1010E000D0F80C804FEA410A4FF0030909FA0AF9D7
:1010F00028EA0908C0F80C80D0F80C804FEA4109B2
:1011000007FA09F948EA0908C0F80C80491C1029B7
:101110009CD3BDE8F087018370470AB1018300E0EA
:10112000418370471FB53548006840F0400033499F
:101130000860012000210B460A46CDE9001001029B
:101140002F48FFF779FF0120032100230246CDE954
:101150000010C1032A48FFF76FFFFFF7A9FD002029
:10116000284908600A2005F0EDF801202649C1F859
:10117000BC020A2005F0E6F8002000900346024673
:101180004FF4807101901E48FFF756FF642005F070
:10119000D9F8042202A948F2401000F03BF80020E0
:1011A0008DF80C0019A102A8FFF748F820BB022017
:1011B0008DF80800012202A948F2400000F084F9ED
:1011C000012202A948F2470000F024F89DF8080027
:1011D000602802DA012000F049F90A2005F0B2F88F
:1011E00000208DF80800012202A948F2400000F01A
:1011F0006BF9002004B010BD0020FBE7303802403E
:1012000000180240BC0243420000434239313437E7
:10121000000000002DE9F04105460F461646FFF795
:10122000F3FD2820FFF7C0FDFFF738FE2812FFF777
:10123000BBFDFFF733FEE8B2FFF7B6FDFFF72EFE6A
:10124000FFF7E2FD2920FFF7AFFDFFF727FE00249F
:101250000BE0711EA14201D0012100E000210846EF
:10126000FFF76EFD3855601CC4B2B442F1DBFFF7E6
:10127000F1FDBDE8F081000071B583B000240026C7
:1012800076480078401C75490870084600780A21A5
:1012900090FBF1F201FB120018B1704800780A28A7
:1012A0007EDA012203A948F24E10FFF7B3FF0020B7
:1012B0000190012201A948F24E1000F005F99DF8B5
:1012C0000C0000F00F0000286AD09DF80C0000F020
:1012D0000F000628E4DA9DF80C0000F00F01FF2053
:1012E0008840C0B201905E4890F820509DF80400FC
:1012F000C043C0B240F0C000594981F82000084600
:1013000081898182C18AC18300244CE0544890F8CD
:1013100020000121A140084020B3524931F81400B7
:10132000042202A9FFF776FF4D4890F8300000F044
:101330000100C0B19DF808009DF8091000EB0120E4
:1013400081B24748163020F814109DF80A009DF825
:101350000B1000EB0120C0F5487081B240480C3002
:1013600020F814101BE09DF808009DF8091000EB10
:1013700001203D490988081A81B239480C3020F80B
:1013800014109DF80A009DF80B1000EB012036495F
:101390004988081A81B23248163020F8141000E04B
:1013A00031E0601CC4B2052CB0DB01262C488089DA
:1013B0002D490988884205DC2948C08A2A4949887C
:1013C00088421DDD9DF80C0000F00F0001280ADDA9
:1013D0002348C089224988810846008BC8820020A2
:1013E0001E4908700FE01E48808A1D498881084602
:1013F000C08BC88280200390084680F8205002E00D
:101400000020164908709DF80C0000F08F0080281D
:1014100019D1134890F8200000F0800038B110482E
:1014200090F8200020F080000D4981F820004FF650
:10143000FF700B498881C882084690F8200000F0B0
:10144000E00081F8200005480078F02802DD0A203D
:1014500002490870304604B070BD00007D000020D5
:1014600080000020F8690008707F002038B505462C
:10147000002400208DF800008DF8015000BF09E025
:101480009DF800000F49095D0844C0B28DF80000C6
:10149000601CC4B2B82CF3D39DF80000C043401CBC
:1014A000C0B28DF80000B822064948F2470000F0AB
:1014B0000BF80222694648F2FF0000F005F8002010
:1014C00038BD0000406900082DE9F04104460E4691
:1014D00017464FF00008FFF797FC2820FFF764FC41
:1014E000FFF7DCFC2012FFF75FFCFFF7D7FCE0B250
:1014F000FFF75AFCFFF7D2FC00250BE0705DFFF709
:1015000053FCFFF7CBFC8046B8F1000F00D003E09E
:10151000681CC5B2BD42F1DB00BFFFF79BFC404633
:10152000BDE8F0810348006802490968491C014A86
:10153000116070472800002000BFFEE71CB50121A4
:10154000202002F043F84FF4E060009000208DF876
:10155000040003208DF8050001208DF8070069467E
:101560000148FFF7EAFC1CBD0014024038B500201A
:10157000009000244FF480713848FFF749FD8DF842
:1015800000004FF400713548FFF742FD8DF801006F
:101590004FF480613148FFF73BFD8DF80200304881
:1015A000007800284AD09DF8000028B19DF801007D
:1015B00010B19DF80200E8BB0020294908706420A2
:1015C00004F0C0FE4FF480712448FFF721FD8DF830
:1015D00000004FF400712148FFF71AFD8DF801005B
:1015E0004FF480611D48FFF713FD8DF802009DF850
:1015F000000040B99DF80100012804D19DF80200C7
:10160000012800D101249DF80000012807D19DF890
:10161000010020B99DF80200012800D102249DF8A4
:101620000000012818D19DF80100012814D19DF86F
:10163000020000E002E078B903240DE09DF800000C
:10164000012809D19DF80100012805D19DF802006B
:10165000012801D102490870204638BD001402401B
:101660007C00002070B504460026094805884088A3
:1016700045430021084601F03DFA01F047FB00BF59
:1016800002E004480480761CAE42FAD370BD00002C
:10169000707F00200010006C10B504460CBB0020C9
:1016A00021498871F02008804FF4A07048800846D6
:1016B000808845F2105188420FD14FF430501A49BA
:1016C00008814FF4285048814FF42C5088814FF402
:1016D000F07008804FF448704880032001F06EF9E4
:1016E00020E00120104988714FF4A0700880F0209C
:1016F00048800846808845F2105188420FD14FF447
:101700003050094908814FF4285048814FF42C503B
:1017100088814FF4487008804FF4F07048800620AC
:1017200001F04CF910BD0000707F002030B5044678
:101730000D461648808845F2105188421FD1134942
:10174000488901F0D7FA201201F0C8FA0F494989F7
:10175000491C88B201F0CEFAE0B201F0BFFA0B49A1
:10176000888901F0C7FA281201F0B8FA0749898977
:10177000491C88B201F0BEFAE8B201F0AFFA0348A2
:10178000008903490880881C028030BD707F0020DA
:10179000FE0F006C2DE9F04F05460E4617469846A1
:1017A000DDF824A04FF0000B781B401C1FFA80FBD3
:1017B000344613E02146284601F09CF901F0A6FAD0
:1017C0004FF0000906E00748A0F800A009F1010069
:1017D0001FFA80F9D945F6DB601C84B24445E9DD87
:1017E000BDE8F08F0010006C1CB5FE48006840F0AA
:1017F0007800FC4908600846006840F00200086074
:101800000846006840F001000860F64808300068AB
:1018100040F00100F3490831086001200321002352
:101820000222CDE900104CF23371EF48FFF704FCBF
:101830000120032100230222CDE900104FF6807120
:10184000EA48FFF7F9FB0120032100230222CDE93A
:1018500000101146E648FFF7EFFB012003210023AB
:101860000222CDE900100103E148FFF7E5FB01206A
:10187000032100230246CDE900104102DD48FFF7B5
:10188000DBFB0120DC4908600C220021D648FFF771
:1018900034FB0C220121D448FFF72FFB0C2204213A
:1018A000D148FFF72AFB0C220521CF48FFF725FB83
:1018B0000C220821CC48FFF720FB0C220921CA4842
:1018C000FFF71BFB0C220A21C748FFF716FB0C226F
:1018D0000E21C548FFF711FB0C220F21C248FFF76C
:1018E0000CFB0C220721C148FFF707FB0C22082143
:1018F000BE48FFF702FB0C220921BC48FFF7FDFAA6
:101900000C220A21B948FFF7F8FA0C220B21B7483C
:10191000FFF7F3FA0C221146B448FFF7EEFA0C2257
:101920000D21B248FFF7E9FA0C220E21AF48FFF76C
:10193000E4FA0C220F21AD48FFF7DFFA0C22012157
:10194000AB48FFF7DAFA0C221146A948FFF7D5FA9F
:1019500000204FF020418861C861C1F81C01084691
:10196000806940F4805088610846806940F4804076
:1019700088610846806940F0100088610846C069A7
:10198000C8610846C06940F00F00C8610846C069D8
:1019900040F47050C86199480068C1F81C010846BD
:1019A000D0F81C0140F00900C1F81C010846D0F82D
:1019B0001C0140F40060C1F81C010846806940F039
:1019C00001008861322004F0BDFC4FF45A4001F060
:1019D00091F900F0E9FF8A4988804FF45B4001F0FB
:1019E00089F900F0E1FF86498880084680884FF633
:1019F000FF7101EA0020824988804FF45C4001F0C9
:101A000079F900F0D1FF7E49898808437C498880B4
:101A100008468088B0F5004F02D145F2105088800A
:101A20007748808845F2105188421CD1734800687D
:101A300020F00F004FF02041C1F81C010846D0F8FB
:101A40001C0120F47060C1F81C010846D0F81C018C
:101A500040F00300C1F81C010846D0F81C0140F416
:101A60000070C1F81C016648808845F21051884218
:101A70007ED155214FF4704001F052F9AA214FF266
:101A8000010001F04DF952214FF2020001F048F936
:101A900008214FF2030001F043F901214FF2040045
:101AA00001F03EF90D214FF4304001F039F90D21DC
:101AB0004BF2010001F034F90D214BF2020001F06C
:101AC0002FF934214FF4364001F02AF934214BF23A
:101AD000016001F025F934214BF2026001F020F998
:101AE0000D214FF4314001F01BF90D214BF2011093
:101AF00001F016F90D214BF2021001F011F9342119
:101B00004FF4374001F00CF934214BF2017001F031
:101B100007F934214BF2027001F002F900214FF471
:101B2000324001F0FDF800214BF2012001F0F8F8FD
:101B300000214BF2022001F0F3F824214FF4384049
:101B400001F0EEF824214BF6010001F0E9F8242120
:101B50004BF6020001F0E4F801214FF43F4001F0A0
:101B6000DFF80F214FF4334001F0DAF80F2100E0E5
:101B7000FEE34BF2013001F0D3F80F214BF20230BB
:101B800001F0CEF834214FF4394001F0C9F8342186
:101B90004BF6011001F0C4F834214BF6021001F0AD
:101BA000BFF808214FF4354001F0BAF808214BF294
:101BB000015001F0B5F808214BF2025001F0B0F8E5
:101BC00003214FF4424001F0ABF824214FF43A4096
:101BD00001F0A6F824214BF6012001F0A1F8242100
:101BE00010E0000030380240000C024000100240BB
:101BF0000018024000000240A40240421C0100A064
:101C0000707F00204BF6022001F08AF800214FF48B
:101C10003C4001F085F878214BF6014001F080F856
:101C200000214BF6024001F07BF800214FF43D40CB
:101C300001F076F878214BF6015001F071F800219F
:101C40004BF6025001F06CF800214FF43E4001F0D9
:101C500067F864214BF6016001F062F800214FF44F
:101C6000514001F05DF833214DF2011001F058F8B8
:101C700000214DF2021001F053F834214DF203100F
:101C800001F04EF800214DF2041001F049F83A211C
:101C90004DF2051001F044F800214DF2061001F05C
:101CA0003FF84A214DF2071001F03AF800214DF2B9
:101CB000081001F035F85C214DF2091001F030F800
:101CC00000214DF20A1001F02BF881214DF20B108A
:101CD00001F026F800214DF20C1001F021F8A621A8
:101CE0004DF20D1001F01CF800214DF20E1001F024
:101CF00017F8E5214DF20F1001F012F801214DF215
:101D0000101001F00DF813214DF2111001F008F838
:101D100001214DF2121001F003F854214DF213107D
:101D200000F0FEFF01214DF2141000F0F9FF8221B6
:101D30004DF2151000F0F4FF01214DF2161000F0E5
:101D4000EFFFCA214DF2171000F0EAFF02214DF219
:101D5000181000F0E5FF00214DF2191000F0E0FF2F
:101D600002214DF21A1000F0DBFF01214DF21B1091
:101D700000F0D6FF02214DF21C1000F0D1FF3421FB
:101D80004DF21D1000F0CCFF02214DF21E1000F0AC
:101D9000C7FF67214DF21F1000F0C2FF02214DF274
:101DA000201000F0BDFF84214DF2211000F0B8FF9B
:101DB00002214DF2221000F0B3FFA4214DF22310B6
:101DC00000F0AEFF02214DF2241000F0A9FFB72170
:101DD0004DF2251000F0A4FF02214DF2261000F074
:101DE0009FFFCF214DF2271000F09AFF02214DF204
:101DF000281000F095FFDE214DF2291000F090FF31
:101E000002214DF22A1000F08BFFF2214DF22B102F
:101E100000F086FF02214DF22C1000F081FFFE2120
:101E20004DF22D1000F07CFF03214DF22E1000F03A
:101E300077FF10214DF22F1000F072FF03214DF2B9
:101E4000301000F06DFF33214DF2311000F068FFCB
:101E500003214DF2321000F063FF6D214DF233107B
:101E600000F05EFF00214FF4524000F059FF332193
:101E70004DF2012000F054FF00214DF2022000F04D
:101E80004FFF34214DF2032000F04AFF00214DF2B4
:101E9000042000F045FF3A214DF2052000F040FFFC
:101EA00000214DF2062000F03BFF4A214DF20720B1
:101EB00000F036FF00214DF2082000F031FF5C21D8
:101EC0004DF2092000F02CFF00214DF20A2000F015
:101ED00027FF81214DF20B2000F022FF00214DF25F
:101EE0000C2000F01DFFA6214DF20D2000F018FF80
:101EF00000214DF20E2000F013FFE5214DF20F20DE
:101F000000F00EFF01214DF2102000F009FF132117
:101F10004DF2112000F004FF01214DF2122000F0DB
:101F2000FFFE54214DF2132000F0FAFE01214DF284
:101F3000142000F0F5FE82214DF2152000F0F0FE95
:101F400001214DF2162000F0EBFECA214DF21720C0
:101F500000F0E6FE02214DF2182000F0E1FE002123
:101F60004DF2192000F0DCFE02214DF21A2000F0A3
:101F7000D7FE01214DF21B2000F0D2FE02214DF2CE
:101F80001C2000F0CDFE34214DF21D2000F0C8FED3
:101F900002214DF21E2000F0C3FE67214DF21F20EA
:101FA00000F0BEFE02214DF2202000F0B9FE842197
:101FB0004DF2212000F0B4FE02214DF2222000F06B
:101FC000AFFEA4214DF2232000F0AAFE02214DF223
:101FD000242000F0A5FEB7214DF2252000F0A0FE40
:101FE00002214DF2262000F09BFECF214DF227204A
:101FF00000F096FE02214DF2282000F091FEDE2135
:102000004DF2292000F08CFE02214DF22A2000F032
:1020100087FEF2214DF22B2000F082FE02214DF2CC
:102020002C2000F07DFEFE214DF22D2000F078FEE8
:1020300003214DF22E2000F073FE10214DF22F20CF
:1020400000F06EFE03214DF2302000F069FE3321D6
:102050004DF2312000F064FE03214DF2322000F0F9
:102060005FFE6D214DF2332000F05AFE00214FF447
:10207000534000F055FE33214DF2013000F050FE88
:1020800000214DF2023000F04BFE34214DF20330BE
:1020900000F046FE00214DF2043000F041FE3A21EE
:1020A0004DF2053000F03CFE00214DF2063000F00C
:1020B00037FE4A214DF2073000F032FE00214DF28A
:1020C000083000F02DFE5C214DF2093000F028FEB2
:1020D00000214DF20A3000F023FE81214DF20B3039
:1020E00000F01EFE00214DF20C3000F019FEA6217A
:1020F0004DF20D3000F014FE00214DF20E3000F0D4
:102100000FFEE5214DF20F3000F00AFE01214DF2E5
:10211000103000F005FE13214DF2113000F000FEEA
:1021200001214DF2123000F0FBFD54214DF213302D
:1021300000F0F6FD01214DF2143000F0F1FD822196
:102140004DF2153000F0ECFD01214DF2163000F09B
:10215000E7FDCA214DF2173000F0E2FD02214DF2F9
:10216000183000F0DDFD00214DF2193000F0D8FDEF
:1021700002214DF21A3000F0D3FD01214DF21B3047
:1021800000F0CEFD02214DF21C3000F0C9FD3421DB
:102190004DF21D3000F0C4FD02214DF21E3000F062
:1021A000BFFD67214DF21F3000F0BAFD02214DF254
:1021B000203000F0B5FD84214DF2213000F0B0FD5B
:1021C00002214DF2223000F0ABFDA4214DF223306C
:1021D00000F0A6FD02214DF2243000F0A1FDB72150
:1021E0004DF2253000F09CFD02214DF2263000F02A
:1021F00097FDCF214DF2273000F092FD02214DF2E4
:10220000283000F08DFDDE214DF2293000F088FDF0
:1022100002214DF22A3000F083FDF2214DF22B30E5
:1022200000F07EFD02214DF22C3000F079FDFE2100
:102230004DF22D3000F074FD03214DF22E3000F0F0
:102240006FFD10214DF22F3000F06AFD03214DF299
:10225000303000F065FD33214DF2313000F060FD8B
:1022600003214DF2323000F05BFD6D214DF2333031
:1022700000F056FD00214FF4544000F051FD332191
:102280004DF2014000F04CFD00214DF2024000F003
:1022900047FD34214DF2034000F042FD00214DF294
:1022A000044000F03DFD3A214DF2054000F038FDBC
:1022B00000214DF2064000F033FD4A214DF2074067
:1022C00000F02EFD00214DF2084000F029FD5C21B8
:1022D0004DF2094000F024FD00214DF20A4000F0CB
:1022E0001FFD81214DF20B4000F01AFD00214DF23F
:1022F0000C4000F015FDA6214DF20D4000F010FD40
:1023000000214DF20E4000F00BFDE5214DF20F4093
:1023100000F006FD01214DF2104000F001FD1321F7
:102320004DF2114000F0FCFC01214DF2124000F092
:10233000F7FC54214DF2134000F0F2FC01214DF264
:10234000144000F0EDFC82214DF2154000F0E8FC55
:1023500001214DF2164000F0E3FCCA214DF2174076
:1023600000F0DEFC02214DF2184000F0D9FC00E044
:1023700011E300214DF2194000F0D2FC02214DF290
:102380001A4000F0CDFC01214DF21B4000F0C8FCCA
:1023900002214DF21C4000F0C3FC34214DF21D40DF
:1023A00000F0BEFC02214DF21E4000F0B9FC672196
:1023B0004DF21F4000F0B4FC02214DF2204000F02D
:1023C000AFFC84214DF2214000F0AAFC02214DF225
:1023D000224000F0A5FCA4214DF2234000F0A0FC17
:1023E00002214DF2244000F09BFCB7214DF2254024
:1023F00000F096FC02214DF2264000F091FCCF2126
:102400004DF2274000F08CFC02214DF2284000F0F4
:1024100087FCDE214DF2294000F082FC02214DF2C2
:102420002A4000F07DFCF2214DF22B4000F078FCB8
:1024300002214DF22C4000F073FCFE214DF22D40A4
:1024400000F06EFC03214DF22E4000F069FC1021DB
:102450004DF22F4000F064FC03214DF2304000F0BB
:102460005FFC33214DF2314000F05AFC03214DF264
:10247000324000F055FC6D214DF2334000F050FC2D
:1024800000214FF4554000F04BFC33214DF2015038
:1024900000F046FC00214DF2025000F041FC3421D6
:1024A0004DF2035000F03CFC00214DF2045000F0CE
:1024B00037FC3A214DF2055000F032FC00214DF27C
:1024C000065000F02DFC4A214DF2075000F028FC88
:1024D00000214DF2085000F023FC5C214DF2095020
:1024E00000F01EFC00214DF20A5000F019FC812181
:1024F0004DF20B5000F014FC00214DF20C5000F096
:102500000FFCA6214DF20D5000F00AFC00214DF207
:102510000E5000F005FCE5214DF20F5000F000FCDC
:1025200001214DF2105000F0FBFB13214DF2115030
:1025300000F0F6FB01214DF2125000F0F1FB5421A6
:102540004DF2135000F0ECFB01214DF2145000F05D
:10255000E7FB82214DF2155000F0E2FB01214DF224
:10256000165000F0DDFBCA214DF2175000F0D8FBE9
:1025700002214DF2185000F0D3FB00214DF219500A
:1025800000F0CEFB02214DF21A5000F0C9FB0121F0
:102590004DF21B5000F0C4FB02214DF21C5000F024
:1025A000BFFB34214DF21D5000F0BAFB02214DF269
:1025B0001E5000F0B5FB67214DF21F5000F0B0FB3C
:1025C00002214DF2205000F0ABFB84214DF221504E
:1025D00000F0A6FB02214DF2225000F0A1FBA42145
:1025E0004DF2235000F09CFB02214DF2245000F0EC
:1025F00097FBB7214DF2255000F092FB02214DF2DE
:10260000265000F08DFBCF214DF2275000F088FBC3
:1026100002214DF2285000F083FBDE214DF22950BB
:1026200000F07EFB02214DF22A5000F079FBF221EE
:102630004DF22B5000F074FB02214DF22C5000F0B3
:102640006FFBFE214DF22D5000F06AFB03214DF28D
:102650002E5000F065FB10214DF22F5000F060FB72
:1026600003214DF2305000F05BFB33214DF231502D
:1026700000F056FB03214DF2325000F051FB6D216A
:102680004DF2335000F04CFB00214FF4564000F067
:1026900047FB33214DF2016000F042FB00214DF277
:1026A000026000F03DFB34214DF2036000F038FB86
:1026B00000214DF2046000F033FB3A214DF2056039
:1026C00000F02EFB00214DF2066000F029FB4A21AC
:1026D0004DF2076000F024FB00214DF2086000F08D
:1026E0001FFB5C214DF2096000F01AFB00214DF246
:1026F0000A6000F015FB81214DF20B6000F010FB29
:1027000000214DF20C6000F00BFBA6214DF20D6094
:1027100000F006FB00214DF20E6000F001FBE52108
:102720004DF20F6000F0FCFA01214DF2106000F054
:10273000F7FA13214DF2116000F0F2FA01214DF287
:10274000126000F0EDFA54214DF2136000F0E8FA47
:1027500001214DF2146000F0E3FA82214DF2156080
:1027600000F0DEFA01214DF2166000F0D9FACA211C
:102770004DF2176000F0D4FA02214DF2186000F01B
:10278000CFFA00214DF2196000F0CAFA02214DF291
:102790001A6000F0C5FA01214DF21B6000F0C0FA8A
:1027A00002214DF21C6000F0BBFA34214DF21D6095
:1027B00000F0B6FA02214DF21E6000F0B1FA672176
:1027C0004DF21F6000F0ACFA02214DF2206000F0E3
:1027D000A7FA84214DF2216000F0A2FA02214DF205
:1027E000226000F09DFAA4214DF2236000F098FAD7
:1027F00002214DF2246000F093FAB7214DF22560DA
:1028000000F08EFA02214DF2266000F089FACF2105
:102810004DF2276000F084FA02214DF2286000F0AA
:102820007FFADE214DF2296000F07AFA02214DF2A2
:102830002A6000F075FAF2214DF22B6000F070FA78
:1028400002214DF22C6000F06BFAFE214DF22D605A
:1028500000F066FA03214DF22E6000F061FA1021BB
:102860004DF22F6000F05CFA03214DF2306000F071
:1028700057FA33214DF2316000F052FA03214DF244
:10288000326000F04DFA6D214DF2336000F048FAED
:1028900055214FF4704000F043FAAA214FF2010095
:1028A00000F03EFA52214FF2020000F039FA0821FE
:1028B0004FF2030000F034FA00214FF2040000F060
:1028C0002FFACC214FF4314000F02AFA00214BF2CC
:1028D000011000F025FA05214FF4364000F020FAEF
:1028E00070214FF4374000F01BFA70214BF2017059
:1028F00000F016FA01214FF4384000F011FA0321DC
:102900004BF6010000F00CFA03214BF6020000F038
:1029100007FA03214BF6030000F002FA02214FF4FC
:102920003C4000F0FDF900214BF6014000F0F8F9C1
:1029300000214BF6024000F0F3F9D0214FF449405A
:1029400000F0EEF902214CF6011000F0E9F95021F7
:102950004CF6021000F0E4F950214CF6031000F0A0
:10296000DFF950214CF6041000F0DAF900214FF4A1
:10297000545000F0D5F955214FF4685000F0D0F9CB
:102980004FF4885000F0B6F9782003F0E9FC4FF4DA
:10299000245000F0AFF90120FEF77EFE4FF6FF70E5
:1029A000FEF760FE1CBD000008B5034800880090DB
:1029B000BDF8000008BD00000010006C70B50546B1
:1029C000002400264A48808845F2105188427CD174
:1029D000082D1CD2DFE805F00406090C0F121518AB
:1029E00000BF14E044F0800411E044F040040EE025
:1029F00044F0C0040BE044F0200408E044F060041C
:102A000005E044F0A00402E044F0E00400BF00BF91
:102A10003748808845F21051884201D14FF458560A
:102A20003348808845F21051884201D044F00804B0
:102A30002146304600F074F92D48808845F2105147
:102A4000884253D12A49488900F054F9002000F007
:102A500045F927494989491C88B200F04BF9002003
:102A600000F03CF922494989891C88B200F042F9FA
:102A70001F490988491EC1F30F2000F02FF91C4996
:102A80004989C91C88B200F035F919490978491EED
:102A9000C8B200F023F91649888900F02BF900200C
:102AA00000F01CF912498989491C88B200F022F90A
:102AB000002000F013F90E498989891C88B200F0C2
:102AC00019F90B494988491E00E00FE0C1F30F20B6
:102AD00000F004F906498989C91C88B200F00AF996
:102AE00003498978491EC8B200F0F8F870BD0000AB
:102AF000707F002010B502460C461348808845F2CE
:102B0000105188421FD11049488900F0F3F8101283
:102B100000F0E4F80C494989491C88B200F0EAF851
:102B2000D0B200F0DBF80849888900F0E3F8201201
:102B300000F0D4F804498989491C88B200F0DAF819
:102B4000E0B200F0CBF810BD707F00202DE9F84F07
:102B500080460E4617461C46B3462046E31704EB54
:102B60005373DB1021464FEAE47C04EB5C7C4FEAB4
:102B7000EC0CA4EBCC0CBCF1000F02D04FF0010C1C
:102B800001E04FF0000C6344224604EBD27C4FEA94
:102B90006C0C03FB0CF3DBB20093A7F12000C7B26F
:102BA000002556E00C2C07D107EB47002B4901EB21
:102BB000800010F8059013E0102C05D1284800EB98
:102BC000071010F805900BE0182C07D107EBC70091
:102BD000244901EB800010F8059001E0BDE8F88F72
:102BE0004FF0000A2FE009F0800030B11E48028843
:102BF00031464046FEF79AFD07E00A9828B91B487F
:102C0000028831464046FEF791FD4FEA49604FEA9F
:102C10001069701C86B216484088B04200DCDDE7BF
:102C2000A6EB0B00A0420AD15E4608F101001FFA94
:102C300080F80F480088404500DCCFE706E00AF145
:102C4000010000F0FF0ABAF1080FCCDB00BF681CDE
:102C5000C5B200988542A5DB00BFBFE7026A000845
:102C6000766E000866740008B4000020B6000020EC
:102C7000707F00202DE9F84704460D46904699469E
:102C8000DDE9096704F0FF0A08EB04001FFA80F889
:102C900009EB05001FFA80F916E0444502DB5446B3
:102CA000A81985B24D4500DB14E0002000903A7869
:102CB000334629462046FFF749FF304606EBD071E0
:102CC00004EB61018CB27F1C38787E2802DC3878F6
:102CD0002028E2DA00BFBDE8F887000001B5BDF8A2
:102CE00000000090BDF800000149088008BD000008
:102CF0000010006C01B5BDF800000090BDF80000A8
:102D00000149088008BD0000FE0F006C02480089E0
:102D10000249088070470000707F0020FE0F006CA1
:102D2000024A1080921C118070470000FE0F006C58
:102D30001CB50121202000F049FCFF20009001205B
:102D40008DF8040000208DF8060003208DF80500A2
:102D500000208DF8070069461148FEF7EEF80121C2
:102D60000F48FEF7D8F902210D48FEF7D4F90421E7
:102D70000B48FEF7D0F908210948FEF7CCF91021DD
:102D80000748FEF7C8F920210548FEF7C4F940219D
:102D90000348FEF7C0F980210148FEF7BCF91CBDCD
:102DA0000014024000BFFEE702EE100AB8EE422A0D
:102DB000DFED212A82EE223AF0EE430A02EE101AEB
:102DC000B8EE422ADFED1C2A82EE223AB0EE431A18
:102DD000B4EEE01AF1EE10FA05D29FED182A31EEAA
:102DE000022AB0EE421A31EE602AF3EE0F2AC2EE4A
:102DF000221A02EE102AB8EE422AB0EE600A02EE63
:102E0000210A05E09FED0D2A30EE422AB0EE420A7B
:102E10009FED0A2AB4EEC20AF1EE10FAF2DA05E0EA
:102E20009FED062A30EE022AB0EE420AB5EEC00A45
:102E3000F1EE10FAF4D370470000C8420000B4432A
:102E40002DE9FF5F00240020039000BF0EE0F5494C
:102E5000095CA52908D1F34A411C515C5A2903D1C8
:102E600004460121039107E0411C88B2ED49B1F805
:102E7000D810891E8142EADA00BF0398F0B9E94808
:102E8000B0F8D8000A2815DDE649B1F8D80000EB03
:102E9000D0714E10E348B0F8D800821BE148811988
:102EA000FDF78EF9DF48B0F8D800801BDD49A1F8A6
:102EB000D80000BF002004B0BDE8F09FD948B0F8AA
:102EC000D810E01C814212DC002C0EDDD548B0F891
:102ED000D800021BD3480119FDF772F9D148B0F8A8
:102EE000D800001BCF49A1F8D8000020E3E7CD4966
:102EF000A01C0D5C0A2D01DBC82D36DDCAA00068C0
:102F00000290002028E002A9095C2144C54AB2F8D9
:102F1000D82091421FDC002200210BE06318C14E33
:102F2000B6F8D860B34204DA6318BE4EF35C1344BB
:102F3000DAB2491C02AB1B5C5B1E8B42EEDC02A9C1
:102F4000095C2144491EB74B595C914202D102A948
:102F50000D5C03E000BF401C0428D4D300BF0A2D41
:102F600001DBC82D00DD6C2500BF6019AD49B1F84B
:102F7000D81088427EDC4FF00009204605E0A949C0
:102F8000095C494401F0FF09401C6119491E814256
:102F9000F5DC6019401EA349085C02900298814547
:102FA00005D00846D0F8E000401CC1F8E0009D487C
:102FB000B0F8D81004F10900814276DD9949201D4E
:102FC000095C984AE01C105C41EA00271146A01DEC
:102FD000095C601D105C41EA0028114604F10800FC
:102FE000095CE01D105C41EA0020019048F6A04019
:102FF00087427DDC8045FCDC0198B0F5E16FF8DCB0
:103000000120114681F8E4000846A0F8E670A0F817
:10301000E8800198A1F8EA00FEF784FA8149C1F836
:10302000EC01A5F10900032190FBF1F01FFA80FAF1
:10303000BAF1200F01DD4FF0200A002347E003EB37
:10304000430104F10900084486B27648B0F8D8106C
:10305000B01C814239DD7349701C095C7148805D88
:1030600041EA002B6F49B01C085C00901A464146AB
:10307000384600E058E0FFF797FEF0EE403ABBF12B
:103080000A0F13DD42F2107083450FDA6548EC3009
:1030900020F833B000EBC300009981706148EC3038
:1030A00000EBC300C0ED013A0EE03CE000215D48BA
:1030B000EC3020F8331000EBC30081705948EC303D
:1030C00000EBC300C0ED013A00BF581CC3B253452A
:1030D000B5DB60195349B1F8D810884215DA514868
:1030E000B0F8D800001B421B60194E4BC11800E01D
:1030F00018E01846FDF764F84A48B0F8D80061199E
:10310000401A4849A1F8D80003E000204549A1F839
:10311000D8004448D0F8DC00401C4249C1F8DC002B
:103120000120C8E600BF00BF3E48B0F8D81004F147
:103130000900814275DB3B49201D095C394AE01CCE
:10314000105C41EA00271146A01D095C601D105C5F
:1031500041EA0028114604F10800095CE01D105CFA
:1031600041EA002A48F6A040874273DC804571DCC2
:10317000BAF5E16F6EDC0120114681F8E4000846E3
:10318000A0F8E670A0F8E880A0F8EAA0FEF7CAF977
:103190002449C1F8EC010846B0F8D800001B0938F2
:1031A000032190FBF1F01FFA80FBBBF1200F01DD42
:1031B000202000E058468346002346E003EB43010D
:1031C00004F10900084486B21648B0F8D810B01CC3
:1031D000814238DD1349701C085C895D40EA012991
:1031E0001049B01C085C02901A4641463846FFF769
:1031F000DBFDF0EE403AB9F10A0F17DD42F2107034
:10320000814513DA0748EC3020F8339000EBC30017
:10321000029981700348EC3000EBC300C0ED013A25
:1032200010E035E0C80000206C687064002124487C
:1032300020F8331000EBC3008170214800EBC3007D
:10324000C0ED013A00BF581CC3B25B45B6DB01209C
:1032500031E6FFE71A48EC38B0F8D800001B821EB0
:10326000174BEC3BA01C19181846FCF7A9FF144893
:10327000EC38B0F8D810A01C081A1149EC39A1F8A4
:10328000D8000846D0F8E000401CC1F8E00014E087
:10329000002C12DD0A48EC38B0F8D800021B0848B0
:1032A000EC380119FCF78CFF0548EC38B0F8D80071
:1032B000001B0349EC39A1F8D8000020FBE5000011
:1032C000B401002070B501F009FF0446002C38DD80
:1032D00002F040F8A8B31B480068401C1949086078
:1032E00025461948B0F8D8002844D82809D9002024
:1032F0001549A1F8D800D82C01D9D82000E02046E3
:1033000005461149B1F8D8100F4A88182A460F49C6
:10331000FCF756FF0C48B0F8D80028440A49A1F839
:10332000D8000846B0F8D8000A2807DBFFF788FD68
:1033300020B107480068401C0549086001F0C6FE3E
:1033400000BF70BD20000020C8000020447900208C
:103350001C00002010B590B0FEF7E4F80446654864
:10336000D0F8DC0070B16348D0F8EC01624909681C
:10337000884207D90020614908705E48D0F8EC0106
:103380005D4908605D480078032805DD01F09EFE78
:1033900000205849A1F8D800584800780A281BDDB9
:1033A0004FF4E12001F066FF0A2002F0CBFF00207D
:1033B00052490870224652A103A802F0E9F803A876
:1033C00010210B464FF49672CDE900104FF4D271E4
:1033D0001420FFF74FFC00BF4E480078062838D273
:1033E000DFE800F0030B131B262E4BA000680F90A4
:1033F00004210FA801F0B4FF69E048A000680F9015
:1034000004210FA801F0ACFF61E045A000680F9017
:1034100004210FA801F0A4FF59E042A000680F901A
:1034200004210FA801F09CFF322002F08BFF4EE038
:103430003AA000680F9004210FA801F091FF46E028
:1034400039A103C9CDE90E0105210EA801F088FFBD
:103450003DE02A480078052830DD35490978481CC8
:10346000C11700EB91718910A0EB8101304A1170F6
:103470003049127851F8220001F0FCFE2D482C4909
:10348000097850F821202CA103A802F081F803A8A4
:1034900010210B464FF49672CDE900104FF4D27113
:1034A0001420FFF7E7FB0A2002F04CFF1BA0006886
:1034B0000290042102A801F053FF07E017A0006862
:1034C0000F9004210FA801F04BFF00BF00BF00BF09
:1034D00010480078401C072190FBF1F201FB12001C
:1034E0000C49087005480078401C0449087010B069
:1034F00010BD0000C8000020300000202D0000207A
:1035000055415254352052452D494E4954204020B2
:10351000256C75002C000020A565000AA56000053B
:10352000A5900035A54000E5A50B0100B100000005
:1035300044000020340000205472792062617564D8
:10354000726174653A20256C7500000070470000B8
:1035500070B5002100230F22C4781CB3174C2468D7
:1035600004F4E064C4F5E064C4F30721C1F1040489
:10357000E3B20A4144789C40E1B28478144021438C
:103580000C07210E0E4C05786155047804F01F05D8
:103590000124AC4005786D11AD0005F1E025C5F8BA
:1035A000004109E0047804F01F050124AC40054DFA
:1035B0000678761145F8264070BD00000CED00E05D
:1035C00000E400E080E100E07047000029B1064A15
:1035D00012680243044B1A6004E0034A12688243F3
:1035E000014B1A60704700003038024029B1064A8A
:1035F00012680243044B1A6004E0034A12688243D3
:10360000014B1A607047000040380240F0B50021BD
:1036100000220024022500260223324F3F6807F0D3
:103620000C0121B1042905D0082937D105E02E4F1E
:10363000076036E02D4F076033E02A4F3F1F3F6899
:10364000C7F38056274F3F1F3F6807F03F036EB117
:10365000264FB7FBF3F7DFF88CC0ACF1040CDCF8B5
:1036600000C0CCF3881C07FB0CF40CE01E4FB7FB2A
:10367000F3F7DFF870C0ACF1040CDCF800C0CCF359
:10368000881C07FB0CF4174F3F1F3F68C7F3014727
:103690007F1C7D00B4FBF5F7076002E0124F076066
:1036A00000BF00BF0F4F3F6807F0F0010909104F3E
:1036B0007A5C0768D74047600A4F3F6807F4E051DB
:1036C000890A0B4F7A5C4768D7408760054F3F688F
:1036D00007F46041490B064F7A5C4768D740C760E2
:1036E000F0BD0000083802400024F40040787D015D
:1036F00062000020304890F8200000F08000002890
:1037000055D001212D4880F849152B48808900EEBD
:10371000100AB8EE400A2A4880ED530A2648C08AAB
:1037200000EE100AB8EE400A254880ED540A2348FE
:1037300090F8480501283ED11F48808900EE100A04
:10374000B8EE400ADFED1F0A20EE200ADFED1E0A68
:1037500080EE201ABDEEC10A10EE100A01B21B481D
:10376000A0F810171448C08A00EE100AB8EE400AFC
:10377000DFED140A20EE200ADFED150A80EE201A94
:10378000BDEEC10A10EE100A01B21048A0F81217DF
:103790009FED100A00F5806080EDC60A9FED0D0ACE
:1037A00080EDC70A9FED0B0A80EDC80A03E00021F7
:1037B000024880F84915704780000020B872002048
:1037C000B876002000007A4400004844B822002067
:1037D0000000F0430000000010B542F210711348E1
:1037E000FCF715FD44F620611148FCF710FD4FF47D
:1037F000FA711048A0F81017A0F812170021A0F8CD
:1038000014179FED0D0A00F5806080EDC60A9FED4C
:103810000A0A80EDC70A9FED080A80EDC80AFDF785
:1038200081FE0449C1F8240710BD0000B802002041
:10383000E0290020B82200200000000000B5BDB043
:1038400000204FF4E17340F21632782100900A20F4
:10385000FDF7A0FF40F2FF707A234FF4FF7278214A
:1038600000900A20FDF796FF40F2FF704FF4D273EC
:103870000C22782100900A20FDF78CFF40F2FF70A7
:103880004FF4D3734FF4FF72991E00900A20FDF796
:1038900081FF40F2FF704FF4D3734FF40072782130
:1038A0000090901EFDF776FF4FF6FF703C904FF6AC
:1038B00020503B9047F6EF303A904FF478403990E3
:1038C0001F2038900520379003203690F948007863
:1038D00020B1012807D002280FD109E0F6A11DA8C8
:1038E00001F056FE09E0FAA11DA801F051FE04E026
:1038F000FEA11DA801F04CFE00BF00BF1DA81021B5
:103900000B464FF49672CDE900107D210F20FFF792
:10391000B1F900200C9071E000200B9068E0FB48AA
:10392000B0F910070A2190FBF1F000B20A90F748B5
:10393000B0F912170A2091FBF0F000B20990DDE90E
:103940000A10401A0490002801DB049801E0049852
:10395000404201280CDC09990C98401A0590002877
:1039600001DB059801E005984042012800DC3CE0BD
:103970000C9800EBC00101EB0010E54901EB800160
:103980000B98085C012804D0022805D0032809D12F
:1039900005E03C98089006E03B98089003E03A98D0
:1039A000089000E021E000BF0B9800EB80000C3095
:1039B00000B207900C9800EB4000913000B20690E6
:1039C000089800900698801C80B205900798001D0A
:1039D00080B20490069880B20390079880B202905B
:1039E00003A90EC9FDF7D6FE00BF0B98401C0B9033
:1039F0000B98642893DB0C98401C0C900C9864285E
:103A00008ADBC248B0F910070A2190FBF1F000EB05
:103A100080000E3000B21C90BC48B0F9120790FB39
:103A2000F1F000EB4000923000B21B90399800900A
:103A30001B98001D80B20C901C98001D80B20B904A
:103A40001B98001F80B20A901C98001F80B209903A
:103A50000AA90EC9FDF79EFEAC48B0F9140700EEA6
:103A6000100AB8EEC00ADFEDAB0A20EE200ADFED47
:103A7000AA0A60EE200A9FEDA91A80EE810A8DED58
:103A80001A0A9DED1A0A01F0ABFDF0EE400A9DED19
:103A90001C0AB8EEC00AB2EE0E1A01EE200ABDEE04
:103AA000C00A10EE100A00B219909DED1A0A01F03A
:103AB0003FFEF0EE400A9DED1B0AB8EEC00AB2EEE2
:103AC0000E1A01EE200ABDEEC00A10EE100A00B276
:103AD00018901C991998401A0C90002801DB0C983A
:103AE00001E00C98404200B217901B991898401AB8
:103AF0000C90002801DB0C9801E00C98404200B2C9
:103B0000169019991C98884201DA012001E04FF0C3
:103B1000FF30159018991B98884201DA012001E0C6
:103B20004FF0FF301490DDE91610401A00B21390E8
:103B30001C9811901B9810903DE0389800901098B8
:103B4000401C80B20C901198401C80B20B901098D1
:103B500080B20A90119880B209900AA90EC9FDF7A7
:103B600019FE19991198884204D118991098884221
:103B700000D121E01398400000B2129016994942FA
:103B80001298884209DD16991398401A00B21390D2
:103B900015991198084400B211901799129888420B
:103BA00009DA17991398084400B2139014991098E1
:103BB000084400B21090C0E700BF5448B0F9121793
:103BC0000A2091FBF0F00C905048B0F910070A2140
:103BD00090FBF1F00B90024651A11DA80C9B01F047
:103BE000D7FC1DA9102003464FF48272CDE90001D5
:103BF00082218800FFF73EF84448B0F914070A21F3
:103C000090FBF1F201FB12000C904048B0F9140750
:103C100090FBF1F00B90024646A11DA80C9B01F011
:103C2000B7FC1DA810210B464FF48272CDE900109D
:103C300096215000FFF71EF84348D0F81C03079068
:103C4000FCF723FCCDE90A013F48D0F818030790A0
:103C5000FCF71BFCCDE90801DDE90A01CDE9000113
:103C60009DED080B53EC102B38A11DA801F090FC22
:103C70001DA810210B464FF48272CDE90010AA2135
:103C80005000FEF7F7FF3048D0F820030990FCF70A
:103C9000FCFBCDE90A019DED0A0B53EC102B32A180
:103CA0001DA801F075FC1DA810210B464FF482726F
:103CB00064E0000025000020534C414D204D617010
:103CC000202D2044796E616D6963204D6F6465001D
:103CD000534C414D204D6170202D20506572736909
:103CE0007374656E74204D6F64650000534C414DD4
:103CF000204D6170202D2057616C6C2044657465E7
:103D00006374696F6E204D6F64650000B8220020F7
:103D1000B8020020CDCCCC3DD00F49400000344348
:103D2000506F736974696F6E3A2025642C25642086
:103D3000636D0000416E676C653A2025642E256432
:103D40002064656700000000B826002056656C6F8F
:103D5000636974793A20252E31662C252E31662030
:103D6000636D2F7300000000416E67756C61723ADD
:103D700020252E3166206465672F7300CDE9001081
:103D8000BE215000FEF776FFBA48B0F9000000905F
:103D9000B948B0F90030B948B0F90020B8A11DA861
:103DA00001F0F6FB1DA810210B464FF48272CDE9FD
:103DB0000010D2215000FEF75DFFB748D0F8E000B8
:103DC0000C90B548D0F8DC000B900246B3A11DA8BA
:103DD0000C9B01F0DDFB1DA810210B464FF48272F5
:103DE000CDE90010E6215000FEF744FFB14890F8FD
:103DF000480520B9B0A11DA801F0CAFB03E0B7A196
:103E00001DA801F0C5FB1DA810210B464FF48272BE
:103E1000CDE90010FA215000FEF72CFFA54890F8DC
:103E2000490538B3B548D0F850010790FCF72DFB91
:103E3000CDE90A01B148D0F84C010790FCF725FB09
:103E4000CDE90801DDE90A01CDE900019DED080B8E
:103E500053EC102BAAA11DA801F09AFB1DA810215C
:103E60000B464FF48272CDE900104FF48771500079
:103E7000FEF700FF00200F900E900D900C903AE09E
:103E800000200B9031E00C9800EBC00101EB00101A
:103E9000A04901EB80010B98085C012803D10F9821
:103EA000401C0F901EE00C9800EBC00101EB0010CD
:103EB000984901EB80010B98085C022803D10E9809
:103EC000401C0E900EE00C9800EBC00101EB0010BE
:103ED000904901EB80010B98085C032802D10D98F2
:103EE000401C0D900B98401C0B900B986428CADB6B
:103EF0000C98401C0C900C986428C1DB86A11DA86E
:103F0000DDE90E3201F044FB1DA810210B464FF4F1
:103F10008272CDE900104FF491715000FEF7AAFEB5
:103F200084A010210B464FF48272CDE900104FF4AB
:103F3000A0715000FEF79EFE82A010210B464FF4A8
:103F40008272CDE900104FF4AA715000FEF792FE84
:103F500080A010210B464FF48272CDE900104FF47F
:103F6000B4715000FEF786FE7FA010210B464FF47F
:103F70008272CDE900104FF4C3715000FEF77AFE53
:103F80003C984FF4D27340F212224FF4CD7100905E
:103F90004FF40270FDF7FEFB75A010210B46502276
:103FA000CDE900104FF4CD7140F21720FEF762FE0C
:103FB0003B984FF4DC7340F212224FF4D77100901B
:103FC0004FF40270FDF7E6FB6CA010210B46502267
:103FD000CDE900104FF4D77140F21720FEF74AFEEA
:103FE0003A984FF4E67340F212224FF4E1710090D8
:103FF0004FF40270FDF7CEFB62A010210B46502259
:10400000CDE900104FF4E17140F21720FEF732FEC7
:1040100039984FF4C87340F28A224FF4C37100906C
:104020004FF42070FDF7B6FB59A010210B4650222B
:10403000CDE900104FF4C37140F28F20FEF71AFE55
:1040400038984FF4D27340F28A224FF4CD71009029
:104050004FF42070FDF79EFB4FA010210B46642209
:10406000CDE900104FF4CD7140F28F20FEF702FE33
:104070003DB000BD180000201600002014000020F4
:104080004144584C3A20583D256420593D25642030
:104090005A3D256400000000C80000204C6964619E
:1040A000723A20256C75207074732C20256C752055
:1040B00065727200B87200204D6F64653A205374C7
:1040C0006174696320284B45593320746F20656EF5
:1040D00061626C65206D6F76652900004D6F6465C7
:1040E0003A204D6F76656D656E7420284B455932C8
:1040F00020746F206C6F636B29000000B87600207D
:10410000546F7563683A20252E30662C20252E309A
:1041100066000000B80200204D61703A202564203E
:104120006F62737461636C65732C20256420776102
:104130006C6C730053313A205265736574204D6185
:104140007000000053323A204368616E6765204D6D
:104150006F64650053333A204368616E676520449D
:104160006973706C617900004C6567656E643A0034
:104170004F62737461636C650000000057616C6C82
:1041800000000000556E6365727461696E00000086
:10419000526F626F7400000048656164696E670069
:1041A0002DE9F04103460C46002500260021574228
:1041B0002AE0D819002813DB642811DA04EBC40CB8
:1041C0000CEB041CDFF8B88008EB8C0C1CF800C06A
:1041D000BCF1010F04D1491CB14202DD0E4600E0E2
:1041E000002100280FDB64280DDA04EBC40C0CEB73
:1041F000041CDFF88C8008EB8C0C1CF800C0BCF1B0
:10420000010F00D16D1C7F1C9742D2DD0021574267
:104210002AE0E019002813DB642811DA00EBC00C57
:104220000CEB001CDFF8588008EB8C0C1CF803C06A
:10423000BCF1010F04D1491CB14202DD0E4600E081
:10424000002100280FDB64280DDA00EBC00C0CEB1A
:10425000001CDFF82C8008EB8C0C1CF803C0BCF1B0
:10426000010F00D16D1C7F1C9742D2DD032E01DAB5
:10427000954202DB0120BDE8F0810020FBE7000051
:10428000B80200202DE9F0412DED088BB64890F8DA
:10429000E40018B9BDEC088BBDE8F081B3480078A4
:1042A000012800D1F6E7B248B0F910070A2190FBC7
:1042B000F1F007B2AE48B0F9120790FBF1F00FFA37
:1042C00080F8AA480078002845D1C21E41E06FF06E
:1042D00002033BE0F81808EB0201002835DB6428F4
:1042E00033DA002931DB64292FDA01EBC10404EB56
:1042F0000114A04D05EBC40434F81040002C11DD6E
:1043000001EBC10404EB011405EBC40434F81040C4
:10431000641E01EBC10505EB0115964E06EBC505C4
:1043200025F8104001EBC10404EB0114914D05EB9D
:10433000C40434F8104044B9002401EBC10505EB76
:1043400001158D4E06EB85052C545B1C032BC1DD3E
:10435000521C032ABBDD8648B0F9140700EE100A90
:10436000B8EEC00ADFED850A20EE200ADFED840AF0
:1043700020EE200ADFED830A80EE208A0026C6E0C8
:104380007948EC3030F8360000287DDD7648EC3096
:1043900030F8360041F28831884275DA7248EC30E4
:1043A00000EBC60090ED010ADFED750A20EE200A51
:1043B000DFED740A80EE201AB0EE41AA6A48EC30B4
:1043C00030F8360000EE100AB8EE400ADFED6E0A53
:1043D00080EE201AF0EE418AB0EE4A0A01F000F9B0
:1043E00020EE280AB0EE409AB0EE4A0A01F0A0F999
:1043F00020EE280AF0EE409AB0EE480A01F0F0F8FC
:1044000060EE09BAB0EE480A01F092F949EEC0BA7E
:10441000F0EE6BAAB0EE480A01F08AF960EE09BA34
:10442000B0EE480A01F0DCF849EE80BAB0EE6BBAA3
:104430004F48B0F9100700EE100AB8EEC00ADFEDE1
:10444000530A0AEEA00AF2EE040A80EE201ABDEE2C
:10445000C10A10EE100A04B24548B0F9120700EE86
:10446000100AB8EEC00ADFED490A0BEE200AF2EEA0
:10447000040A80EE201ABDEEC10A10EE100A05B241
:10448000002C42DB642C00E040E03EDA002D3CDBF7
:10449000642D3ADA05EBC50000EB0510354901EB58
:1044A000C00030F81400142811DA05EBC50000EB49
:1044B000051001EBC00030F81400401C05EBC501ED
:1044C00001EB05112B4A02EBC10121F8140005EBA9
:1044D000C50000EB0510274901EBC00030F81400BF
:1044E000052809DD012005EBC50101EB0511224A74
:1044F00002EB8101085508E0032005EBC50101EB43
:1045000005111D4A02EB8101085500BF761C202EC3
:10451000FFF636AF15480078022822D101241EE0AC
:10452000012519E004EBC40000EB0410124901EB73
:104530008000405D01280ED1032221B228B2FFF78E
:104540002FFE40B1022004EBC40101EB04110A4A22
:1045500002EB810148556D1C632DE3DB641C632C69
:10456000DEDB00BF96E60000C8000020250000202A
:10457000B8220020E0290020B8020020CDCCCC3D9C
:10458000D00F49400000344300007A440000C84284
:10459000F0B52DED108B81B004460D461646FCF7A4
:1045A000C1FF0746FE48D0F82407381A00EE100A6B
:1045B000B8EE400ADFEDFB0A20EE200AB0EE408A9A
:1045C000B6EE000AB4EEC08AF1EE10FA03DD9FEDFC
:1045D000F50AB0EE408A00EE104AB8EEC00ADFEDF0
:1045E000F20A20EE200ADFEDF10A60EE209A00EEDA
:1045F000105AB8EEC00ADFEDEC0A20EE200ADFED1B
:10460000EB0A60EE208A00EE106AB8EEC00ADFED19
:10461000E60A20EE200ADFEDE50A20EE209AB6EE4B
:1046200000DAB0EEE90AF6EE000AB4EEE00AF1EEC6
:1046300010FA03D29FEDDE0AF0EE409AB0EEE80ADF
:10464000F6EE000AB4EEE00AF1EE10FA03D29FEDA6
:10465000D80AF0EE408AB0EEC90AF6EE000AB4EECF
:10466000E00AF1EE10FA03D29FEDD10AB0EE409AC3
:1046700069EEA90A48EEA80A49EE090AB0EE600AF6
:1046800001F01EF9B0EE40AAB0EE4A0AC948D0EDDA
:10469000000A30EE600AB0EEC00ADFEDC70AB4EEE1
:1046A000E00AF1EE10FA10D2C44800780A2804DAC1
:1046B000C2480078401CC1490870C04800780528ED
:1046C00011DB0120BE4908700DE0BC48007820B124
:1046D000BA480078401EB9490870B848007810B947
:1046E0000020B7490870B34880ED00AAB4480078AC
:1046F000A0B3F6EE000AB0EE600AB248D0EDC60AEA
:10470000B6EE001A60EE810AC0EDC60AD0EDC70A07
:10471000B6EE001A60EE810AC0EDC70AD0EDC60AF7
:10472000F0EEE00AB7EE001AF4EEC10AF1EE10FA6C
:1047300003D2DFED9F0AC0EDC60AA248D0EDC70A3A
:10474000F0EEE00AB7EE001AF4EEC10AF1EE10FA4C
:1047500003D2DFED970AC0EDC70A96E0FFE79A485B
:1047600090F8480501285BD19FED980AF0EE40FAD9
:104770009FED970A8DED000A9248D0EDC60A60EED3
:10478000A00A90EDC71AD0EDC71A41EE210AB0EE8B
:10479000600A01F095F8F0EE40EA9FED8E0ACEEE49
:1047A000800A9FED8A0A9FED8A1A01EE200AB0EE78
:1047B00040BA9FED890AB4EEC0BAF1EE10FA03DDFB
:1047C0009FED850AB0EE40BA7E4890EDC60A20EE15
:1047D0000B0A80EDC60A90EDC70A20EE0B0A80EDA9
:1047E000C70A9FED7EFA90EDC60A69EE880A9FED32
:1047F000791A60EE810A9FED791A00EE810A80ED48
:10480000C60A90EDC70A68EE880A9FED721A60EE3C
:10481000810A9FED721A00EE810A80EDC70A34E02A
:10482000DFED6F0AB0EE600A6648D0EDC60A9FED74
:104830006C1A60EE810AC0EDC60AD0EDC70A9FED82
:10484000681A60EE810AC0EDC70AD0EDC60AF0EE24
:10485000E00AB7EE001AF4EEC10AF1EE10FA03D244
:10486000DFED530AC0EDC60A5648D0EDC70AF0EE98
:10487000E00AB7EE001AF4EEC10AF1EE10FA03D224
:10488000DFED4B0AC0EDC70A00BFDFED56DA4D4839
:1048900090EDC60ADFED530AB4EEE00AF1EE10FA2D
:1048A00003DD9FED500A80EDC60A464890EDC60A2A
:1048B000DFED4D0AB4EEE00AF1EE10FA03D29FEDFF
:1048C0004A0A80EDC60A3F4890EDC70ADFED450A67
:1048D000B4EEE00AF1EE10FA03DD9FED420A80ED3E
:1048E000C70A384890EDC70ADFED3F0AB4EEE00A88
:1048F000F1EE10FA03D29FED3C0A80EDC70A28487A
:10490000B0F9140700EE100AB8EEC00ADFED370A5E
:1049100020EE200ADFED360A20EE200ADFED350A10
:10492000C0EE20BAB0EE6B0A00F05AFE2548D0ED7A
:10493000C60A20EE20BAB0EE6B0A00F0F9FE21485C
:10494000D0EDC70AB0EE4BCA00EEC0CAB0EE6B0A9B
:1049500000F0EEFE1B48D0EDC60A20EE20BAB0EE05
:104960006B0A00F03DFE1748D0EDC70AF0EE4BCAC7
:1049700040EE80CA0A48B0F9100700EE100AB8EEFF
:10498000C00A0CEE080ABDEEC00A10EE100A01B211
:104990000348A0F81017B0F9120700EE100A2BE038
:1049A000B8220020CDCC4C3E6F12033DC3F51C4114
:1049B00000000000480000209A99993E4500002020
:1049C0004C000020B8260020B8720020CDCC4C3F0F
:1049D000CDCC4C3D0000C8423333733F9A99193F08
:1049E0003333333F00001643000016C3CDCCCC3D1B
:1049F000D00F494000003443B8EEC00A0CEE880ADC
:104A0000BDEEC00A10EE100A01B26048A0F81217FD
:104A1000B0F91007002803DA00215C48A0F810174D
:104A20005A48B0F91007B0F57A7F04DB40F2E7315D
:104A30005648A0F810175548B0F91207002803DAB5
:104A400000215248A0F812175048B0F91207B0F5EB
:104A50007A7F04DB40F2E7314C48A0F812179FED53
:104A60004C0A69EE00AAB0EEEA0ADFED4A0AB4EE9B
:104A7000E00AF1EE10FA02D34748007818B11FEDB2
:104A8000340AF0EE40AA9FED45EA454890EDC80A89
:104A9000DFED420A20EE200ADFED420A0AEEA00A0C
:104AA00080EDC80A3C480078B8B13D4890EDC80A8E
:104AB000F6EE000A20EE200A80EDC80A90EDC80A42
:104AC000B0EEC00A5FED490AB4EEE00AF1EE10FA6A
:104AD00003D21FED490A80EDC80A2C48B0F914072B
:104AE00000EE100AB8EEC00A2D48D0EDC80A60EEFC
:104AF000880AB2EE041A00EE810ABDEEC00A10EE7A
:104B0000100A01B22148A0F8141708E01F48B0F8B5
:104B1000140700F5616001B21C48A0F814171B4887
:104B2000B0F914070028F1DB08E01848B0F81407C2
:104B3000A0F5616001B21548A0F814171348B0F948
:104B40001407B0F5616FF0DA1048C0F8247700F56B
:104B5000A04090F8480550B94FF400511248FCF7B6
:104B600069FA4FF480411048FCF7D5FA09E04FF498
:104B700000510D48FCF7CFFA4FF480410A48FCF78A
:104B800059FA01B0BDEC108BF0BD0000B822002036
:104B90000AD7233C0AD7A33C4C0000209A99593FDE
:104BA000B82600209899193E001002407047000076
:104BB0000CB50020019000903448006840F480302B
:104BC0003249086000BF3148006800F400300090AE
:104BD0000198401C0190009818B90198B0F5A06F99
:104BE000F1D12A48006800F4003010B10120009093
:104BF00001E0002000900098012846D12348403071
:104C0000006840F080502149403108602048006829
:104C100040F480401E4908601C48083000681B4969
:104C2000083108600846006840F400400860084603
:104C3000006840F4A05008601648091F0860081F6B
:104C4000006840F08070091F086000BF0F480068CE
:104C500000F000700028F9D040F205600E490860AD
:104C60000A480830006820F003000849083108604D
:104C70000846006840F00200086000BF03480830A2
:104C8000006800F00C000828F8D10CBD0038024084
:104C90000070004019544007003C024010B500F07D
:104CA00003FA012001F070FB1A480068401C28B18B
:104CB00018480068401C1749086002E000201549A8
:104CC000086015480068401C1349086008460068E1
:104CD000B0F5FA7F0FD10020086008210F48FCF7DB
:104CE000A0F908B9012000E000200446224608216E
:104CF0000A48FCF712FA0A48007A48B10848007AD4
:104D0000401E074908720846007A08B90120487217
:104D100010BD000050000020580000200014024088
:104D2000647F002030B5164800684FF47A72B0FBFB
:104D3000F2F1B1F1807F01D301201DE021F07F402D
:104D4000401E4FF0E022506150170F22002807DA72
:104D500013071D0E0B4B00F00F04241F1D5503E01D
:104D600013071C0E084B1C5400BF00204FF0E0221C
:104D7000906107201061002008B100BFFEE730BD40
:104D80000000002018ED00E000E400E010B5154838
:104D9000006840F47000134908601348006840F050
:104DA00001001149086000200F49083108600E48D1
:104DB00000680E4908400C4908600D48091D08604C
:104DC000081F006820F48020091F086000200649A1
:104DD0000C310860FFF7ECFE4FF0006001498039AC
:104DE000086010BD88ED00E000380240FFFFF6FECD
:104DF0001030002410B50121880700F0CEF8E8B18A
:104E00000121880700F0BAF80D480068401C0C49E1
:104E1000086008460068B0F5FA7F0FD100200860EE
:104E200001210848FCF7FDF808B9012000E0002046
:104E30000446224601210348FCF76FF910BD00002B
:104E40005C000020001402400EB50121234800F050
:104E5000A4F8002840D00121204800F08FF8204815
:104E60000078401C1E49087008460078052822DB9F
:104E7000002008706A4601A902A8FBF74DFEA8B100
:104E800018480068401C1749086017480078401C03
:104E900015490870084600780A280BDD08211348D8
:104EA000FCF7C8F800201049087003E008210F48FB
:104EB000FCF731F900BF0E48007A00280CDD0C48E1
:104EC000007A401E0A4908720846007A20B908464E
:104ED000406808B1012048720EBD00000004004087
:104EE00060000020540000206100002000140240F7
:104EF000647F00201FB51D208DF8000001208DF873
:104F0000010002208DF8020001208DF803006846A0
:104F1000FEF71EFB01210220FEF768FB092002902C
:104F200042F2CF00ADF804000020ADF80C00ADF85F
:104F3000060001A90A4800F04BF80121084800F0DA
:104F400011F80121064800F019F801221146044821
:104F500000F034F80121024800F013F81FBD0000F2
:104F60000004004021B1028842F08002028004E087
:104F700002884FF67F731A4002807047CA4302824C
:104F8000704721B1028842F00102028004E00288E9
:104F90004FF6FE731A400280704730B5024600207B
:104FA00000230024158A05EA0103958905EA010416
:104FB00013B10CB1012000E0002030BD1AB183898B
:104FC0000B43838102E083898B4383817047000018
:104FD00000220288184B98420ED0184B98420BD0F2
:104FE000B0F1804F08D0164B984205D0154B98422F
:104FF00002D0154B984204D14FF68F731A404B885C
:105000001A43124B984207D0114B984204D04FF6E6
:10501000FF431A400B891A4302804B68C3620B8816
:105020000385054B984202D0044B984201D18B7AFC
:105030000386012383827047000001400004014081
:105040000004004000080040000C00400010004038
:105050000014004010B51148808845F21051884274
:105060001AD1FCF75FF810B90D480E4948600D4899
:1050700090F8300040F080000A4981F8300008467E
:1050800090F830000549897901F00101084305498C
:1050900081F83000002010BD0120FCE7707F002067
:1050A00079120008800000200648006820B10548F9
:1050B0000068401E0349086003480068401C02491C
:1050C000086070477400002078000020002002492A
:1050D0004872486070470000647F00200148808863
:1050E00080B27047647F00202DE9F04140F22551E5
:1050F0005C4800F087F9002874D040F225515948E7
:1051000000F058F9574800F037FAC4B256484068E2
:10511000B0F5C16F09D30020534948605348006877
:10512000401C52490860BDE8F0814F48406820B1FA
:1051300001280BD0022826D11EE0A52C05D14A4813
:10514000006804700120484948606DE05A2C06D17F
:105150004548006844700220434948600BE0A52C94
:1051600006D141480068047001203F49486002E0D0
:1051700000203D49486057E03B48006884700320A8
:105180003949486050E03848006837494968445414
:1051900035484068401C34494860084600688578B6
:1051A0000A2D40DD08464068A8423CD30026002076
:1051B00005E02D490968095C3144CEB2401C691EE6
:1051C0008142F6DC28480168681E085CB04212D1B2
:1051D00001202549487202212548FBF722FF10B91A
:1051E000012001E025E0002007463A460221204840
:1051F000FBF793FF12E004211D48FBF712FF08B9EB
:10520000012000E0002007463A4604211848FBF739
:1052100084FF16488068401C1449886000201249A9
:105220004860087200BF00BF00BFC8200E49087266
:1052300000BF4FF458710B4800F0E4F880B14FF410
:105240005871084800F0B6F8064800F095F90421B6
:105250000748FBF7EFFE05484068401C03494860DB
:1052600000BF60E700500040647F00200C78002001
:105270000014024010B588B004460020304948723E
:10528000486008722F48086001210C20FEF79EF943
:1052900001210805FEF7AAF94FF48050069002207C
:1052A0008DF81C008DF81D0000208DF81E000120D7
:1052B0008DF81F0006A92448FBF73FFE0420069046
:1052C00006A92248FBF739FE08220C211E48FBF7ED
:1052D0007CFE082202211D48FBF777FE0294002085
:1052E000ADF80C00ADF80E00ADF81000ADF81400EC
:1052F0000C20ADF8120002A9154800F0D3F83520B3
:105300008DF8040000208DF8050001208DF80600BE
:105310008DF8070001A8FEF71BF9012240F2255184
:105320000B4800F099F801224FF45871084800F03A
:1053300093F80121064800F04CF808B010BD0000B9
:10534000647F00204479002000080240000C0240E5
:10535000005000400148407A70470000647F002000
:1053600070B504460D4604B105B970BD002604E0D1
:10537000A05D00F007F8701C86B2AE42F8DB00BFFB
:10538000F3E7000010B5044600BF8021084800F094
:105390002CF80028F9D02146054800F0F2F800BFAB
:1053A0004021034800F021F80028F9D010BD00008A
:1053B0000050004010B50022002340F66A14A142BC
:1053C00000D100BF0A1201249440A3B2DC43048040
:1053D00010BD21B1828942F40052828104E08289A9
:1053E0004DF6FF731A408281704702460020B1F5E6
:1053F000007F00D100BF13880B400BB1012000E0FB
:105400000020704770B502460024002300250020CC
:1054100040F66A16B14200D100BFC1F3421501F057
:105420001F03012606FA03F3012D02D196893340AA
:1054300006E0022D02D1168A334001E0968A3340FD
:105440000C12012606FA04F41688344013B10CB18C
:10545000012000E0002070BDF0B5034600240026C6
:105460000025002040F66A17B94200D100BF184657
:10547000C1F3421401F01F06012707FA06F5012CBB
:1054800001D10C3004E0022C01D1103000E01430C6
:105490001AB107682F43076002E00768AF4307604F
:1054A000F0BD00002DE9FF4705460E460024A14649
:1054B00000BFA046B08900B100BF2C8A24F440543C
:1054C000F08804432C82AC8941F20C608443B0889C
:1054D00031890843718908430443AC81AC8A24F4C0
:1054E0004074B0890443AC826846FEF78FF82048C8
:1054F000854202D01F48854202D1DDF80C9001E0C0
:10550000DDF80890A88900F4004040B109EBC9001B
:1055100000EB091031684900B0FBF1F707E009EB37
:10552000C90000EB091031688900B0FBF1F7642075
:10553000B7FBF0F004012009642101FB1078A88971
:1055400000F4004040B1322000EBC800B0FBF1F0A5
:1055500000F00700044308E0322000EB081064214B
:10556000B0FBF1F000F00F0004432C81BDE8FF8791
:10557000001001400014014001468888C0F3080073
:105580007047C1F308028280704700BFFEE7000049
:105590000FB4084B10B504A902AA039800F032FB1F
:1055A000044602A9002000F0C4FE204610BC5DF8AD
:1055B00014FB0000336300084100080218BF0420F8
:1055C0000A0E18BF40F001004FF07F4232EA01019D
:1055D00008BF40F00200012808BF05207047000006
:1055E00010EE101A08B5444A6846B2EB410F28D9AC
:1055F0004FF0E640B0EB410F94BF00204FF0FF307A
:1056000000900098002861DB60EE000A10F0010FA6
:1056100045D010F0020FDFED391A9FED391A00EE78
:10562000E11ADFED381A40EE811A21EEA01AF0EEF1
:10563000400A40EE010A08BFF1EE600AB0EE600ACF
:1056400008BD314B21F0004293423CD911F0004F8C
:10565000DFED2E0A20EE201ADFED2D0A19BF31EE04
:10566000601A71EE200A31EE201A71EE600ABDEE6A
:10567000E01A11EE100A9FED271A00F0030000EE69
:10568000C10A9FED251A009000EEC10A9FED231A72
:1056900000EEC10A9FED221A00EEC10AB1E79FEDAC
:1056A000211A9FED210A10F0020F00EE810A9FEDF2
:1056B0001F1A00EE801AB7EE000A00EE810A18BF2A
:1056C000B1EE400A08BD00F02BF99AE710EE100A7F
:1056D0004000B0F17F4F3CBFB7EE000A08BD07D1D4
:1056E0004FF0010000F0D6F9BDE8084000F008B91D
:1056F000BDE8084000F001B9B61F927E336D4C3909
:10570000DA82083CA0AA2ABE490E494683F9223F04
:105710000000004B0000C93F00A0FD390020A2336B
:105720001A61342CB93AB2BACA9F2A3DDDFFFFBED6
:1057300000B510EE101A2DED028B81B0524A68466A
:10574000B2EB410F2ED94FF0E640B0EB410F94BFC2
:1057500000204FF0FF3000900098B0EE408A002803
:105760006ADB10F0010F4BD068EE080A9FED471A74
:105770009FED470A00EE810A9FED461A10F0020FD6
:1057800000EE801AB7EE000A00EE810A02BF01B0F7
:10579000BDEC028B00BD00BF01B0B1EE400ABDEC14
:1057A000028B00BD3C4B21F00042934241D911F0E5
:1057B000004FDFED3A0A20EE201ADFED390A19BF5B
:1057C00031EE601A71EE200A31EE201A71EE600A95
:1057D000BDEEE01A11EE100A9FED321A00F0030040
:1057E00000EEC10A9FED301A009000EEC10A9FED55
:1057F0002F1A00EEC10A9FED2E1A00EEC10AABE788
:1058000028EE080A9FED2B1ADFED2B0A10F0020F8D
:1058100040EE410A9FED291A00EE201A61EE000ABF
:10582000B0EE480A08EE200AB6D101B0BDEC028BFA
:1058300000BD00F075F88FE718EE100A4000B0F1D7
:105840007F4F0DD218EE100AFFF7B6FE042808BFEE
:1058500000F05EF8B0EE480A01B0BDEC028B00BD6E
:1058600009D1012000F016F901B0BDEC028B5DF802
:1058700004EB00F045B801B0B0EE480ABDEC028B75
:105880005DF804EB00F039B8B61F927EB93AB2BAAF
:10589000CA9F2A3DDDFFFFBE490E494683F9223FDC
:1058A0000000004B0000C93F00A0FD390020A233DA
:1058B0001A61342C336D4C39DA82083CA0AA2ABE16
:1058C00010B52DED028BB1EEC08A18EE100A20F053
:1058D0000040C0F1FF40C00F0AD010EE100A20F0C7
:1058E0000040C0F1FF40C00F04BF012000F0D2F81B
:1058F000B0EE480ABDEC028B10BD30EE000A7047D6
:10590000DFED020A80EEA00A7047000000000000F0
:105910009FED020A20EE000A704700000000001010
:105920002DE9F0014FF07F42B2EB410F9FBF4FF0E6
:10593000FF310160BDE8F00170474FF0004242EADC
:105940000123C1F3C752783A551112F01F0C434C92
:10595000CCF120067C44C1F3C752A2F178024FEA91
:10596000621204EB820254F8254008BFD2E90156C6
:1059700012D0556804FA0CF425FA06F73C439768F0
:1059800005FA0CF527FA06F8D26807FA0CFCF24083
:1059900045EA08054CEA0206A4FB034CA5FB0352AA
:1059A000A6FB03631D449D4234BF01260026131944
:1059B000334416B1934202D903E0934201D201224B
:1059C00000E00022624402F1200C9206DC0C42EA64
:1059D000443200EE102A5B03DFED210AF8EEC01A14
:1059E00000EE103A4FEA9C1C11F0004FB8EE400A4E
:1059F000C0F800C020EE201A00EE105ADFED190AA0
:105A0000B8EE400A20EE200A71EE810A70EE800A9C
:105A100010EE902A02F500626FF30B0200EE902A5E
:105A200070EEE11A31EEC11ADFED101A30EE411AB4
:105A30009FED0D0A20EE800A01EE210A9FED0C1A5F
:105A400000EE810A04BFBDE8F0017047CCF180513F
:105A50000160BDE8F001B1EE400A70476C2800001B
:105A6000000000360000802C22AAFD29DB0FC92F80
:105A70000000C92F02E008C8121F08C1002AFAD18D
:105A800070477047002001E001C1121F002AFBD1BE
:105A9000704700000149086070470000C400002002
:105AA0002DE9FF5FDDE90220010DDDF838B002438A
:105AB00018D044F61050A1F2FF3141430D140F9855
:105AC000012820D0A5EB0B00401C5FEA000A4FF034
:105AD0000004474EDFF81C91A046504616D5CAF187
